:100000000C945D000C9485000C9485000C94850084
:100010000C9485000C9485000C9485000C9485004C
:100020000C9485000C9485000C9485000C9485003C
:100030000C9485000C9485000C9485000C9485002C
:100040000C946A020C9485000C94DA020C94B402AD
:100050000C9485000C9485000C9485000C9485000C
:100060000C9485000C94850000000008000201003B
:100070000003040700000000000000000000000072
:10008000250028002B0000000000240027002A0083
:10009000040404040404040402020202020203032E
:1000A0000303030301020408102040800102040836
:1000B0001020010204081020700411241FBECFEF8D
:1000C000D8E0DEBFCDBF21E0A6E2B1E001C01D92C5
:1000D000AE3CB207E1F711E0A0E0B1E0E8E8F9E0FA
:1000E00002C005900D92A632B107D9F710E0CDE518
:1000F000D0E004C02197FE010E94B704CC35D1079F
:10010000C9F70E940C030C94C2040C94000090E008
:10011000FC01EC55FF4F2491FC01E057FF4F849107
:10012000882399F090E0880F991FFC01EA57FF4F50
:10013000A591B491FC01E458FF4F859194918FB73C
:10014000F894EC91E22BEC938FBF089590E0FC01C2
:10015000E859FF4F2491FC01EC55FF4F3491FC010D
:10016000E057FF4FE491EE2309F43CC0222339F11C
:10017000233091F038F42130A9F0223001F584B514
:100180008F7D12C0273091F02830A1F02430B9F4CF
:10019000809180008F7D03C0809180008F77809355
:1001A00080000DC084B58F7784BD09C08091B000F8
:1001B0008F7703C08091B0008F7D8093B000F0E016
:1001C000EE0FFF1FE458FF4FA591B4919FB7F8942D
:1001D000611104C08C913095382302C0EC913E2B04
:1001E0003C939FBF08953FB7F89480912901909167
:1001F0002A01A0912B01B0912C0126B5A89B05C026
:100200002F3F19F00196A11DB11D3FBFBA2FA92F95
:10021000982F8827820F911DA11DB11DBC01CD0112
:1002200042E0660F771F881F991F4A95D1F70895FE
:10023000CF92DF92EF92FF920F931F93CF93DF93B2
:100240006C017A018B01C0E0D0E0CE15DF0581F0B2
:10025000D8016D918D01D601ED91FC910190F08155
:10026000E02DC6010995892B11F02196EECF7E0174
:10027000C701DF91CF911F910F91FF90EF90DF9019
:10028000CF900895089580E090E00895FC01538D8B
:10029000448D252F30E0842F90E0821B930B541760
:1002A00010F0CF96089501970895FC01918D828DED
:1002B000981761F0828DDF01A80FB11D5D968C91BA
:1002C000928D9F5F9F73928F90E008958FEF9FEFC5
:1002D0000895FC01918D828D981731F0828DE80F81
:1002E000F11D858D90E008958FEF9FEF08952FB752
:1002F000F89480912D0190912E01A0912F01B09141
:1003000030012FBF8093390190933A01A0933B01B4
:10031000B0933C0181E391E00E94690197FF26C000
:100320002FB7F89480912D0190912E01A0912F016B
:10033000B09130012FBF4091390150913A01609145
:100340003B0170913C01841B950BA60BB70B4091B0
:100350003501509136016091370170913801841751
:100360009507A607B707B0F28FEF9FEF0895FC013E
:10037000918D228D892F90E0805C9F4F821B910987
:100380008F739927089581E391E00E94B70121E0DE
:10039000892B09F420E0822F0895FC01848DDF0170
:1003A000A80FB11DA35ABF4F2C91848D90E00196E8
:1003B0008F739927848FA689B7892C93A089B189D7
:1003C0008C91837080648C93938D848D981306C078
:1003D0000288F389E02D80818F7D80830895EF92DC
:1003E000FF920F931F93CF93DF93EC0181E0888FEF
:1003F0009B8D8C8D981305C0E889F989808185FDD6
:1004000026C0F62E0B8D10E00F5F1F4F0F731127C4
:10041000E02E8C8DE8120CC00FB607FCFACFE889ED
:10042000F989808185FFF5CFCE010E94CD01F1CF02
:100430008B8DFE01E80FF11DE35AFF4FF0829FB74D
:10044000F8940B8FEA89FB89808180620AC09FB78C
:10045000F894EE89FF896083E889F9898081837047
:10046000806480839FBF81E090E0DF91CF911F91F6
:100470000F91FF90EF900895CF93DF93EC01888D5B
:100480008823C9F0EA89FB89808185FD05C0A88998
:10049000B9898C9186FD0FC00FB607FCF5CF80811E
:1004A00085FFF2CFA889B9898C9185FFEDCFCE0168
:1004B0000E94CD01E7CFDF91CF91089580E090E0D9
:1004C000892B29F00E94C30181110C94000008952A
:1004D0000E94BD041F920F920FB60F9211242F930A
:1004E0003F938F939F93AF93BF9380912D019091F2
:1004F0002E01A0912F01B09130013091280123E00D
:10050000230F2D3720F40196A11DB11D05C026E84B
:10051000230F0296A11DB11D2093280180932D0168
:1005200090932E01A0932F01B09330018091290167
:1005300090912A01A0912B01B0912C010196A11D4F
:10054000B11D8093290190932A01A0932B01B093B0
:100550002C01BF91AF919F918F913F912F910F905F
:100560000FBE0F901F9018951F920F920FB60F920B
:1005700011242F933F934F935F936F937F938F93A8
:100580009F93AF93BF93EF93FF9381E391E00E941A
:10059000CD01FF91EF91BF91AF919F918F917F918D
:1005A0006F915F914F913F912F910F900FBE0F90E0
:1005B0001F9018951F920F920FB60F9211242F9330
:1005C0008F939F93EF93FF93E0914101F09142014C
:1005D0008081E0914701F091480182FD12C0908135
:1005E00080914A018F5F8F7320914B01821751F0E8
:1005F000E0914A01F0E0EF5CFE4F958F80934A0155
:1006000001C08081FF91EF919F918F912F910F9069
:100610000FBE0F901F901895789484B5826084BDAA
:1006200084B5816084BD85B5826085BD85B58160F6
:1006300085BD80916E00816080936E001092810074
:10064000809181008260809381008091810081602F
:1006500080938100809180008160809380008091F0
:10066000B10084608093B1008091B000816080937C
:10067000B00080917A00846080937A0080917A0043
:10068000826080937A0080917A00816080937A0002
:1006900080917A00806880937A001092C10084E093
:1006A0000E94870087E00E94870088E00E94870000
:1006B00060E087E00E94A600E0914101F0914201D4
:1006C00082E08083E0913D01F0913E011082E09153
:1006D0003F01F09140018FEC808310924901E0913D
:1006E0004501F091460186E08083E0914301F0915D
:1006F0004401808180618083E0914301F091440155
:10070000808188608083E0914301F0914401808181
:1007100080688083E0914301F091440180818F7D66
:10072000808323E0E22EF12C81E391E00E94B70167
:1007300018161906CCF40E947701FC0197FD0DC034
:100740008D32910509F490C0C0970A9708F48CC0C7
:1007500081E391E00E945501EECF812C912C540150
:100760009092270180922601209026013090270147
:1007700092E1C92E91E0D92E00E010E0201631065A
:100780000CF46BC0F601A190B1906F0160E084E0C1
:100790000E94A600C7E0D0E0BB24B5010C2E02C029
:1007A000759567950A94E2F7617088E00E94A6004B
:1007B00061E087E00E94A600C7010197F1F760E0C1
:1007C00087E00E94A600219740F7C7E0D0E061E0F3
:1007D00070E00C2E02C0759567950A94E2F788E0E8
:1007E0000E94A60061E087E00E94A600C701019771
:1007F000F1F760E087E00E94A600219740F761E0F2
:1008000084E00E94A6000E94F3004B015C0188EE88
:10081000482E83E0582E612C712C0E94F300DC01DD
:10082000CB0188199909AA09BB09883E9340A10503
:10083000B10598F3F1E04F1A51086108710828EEEC
:10084000820E23E0921EA11CB11C411451046104CC
:10085000710419F70F5F1F4F91CF1092270110926B
:1008600026010E945E0260CF812C912C5401C0E0D1
:10087000E130F105E1F0ED32F105C1F0CF01C097B3
:100880000A97A8F4AAE0B0E0A50194010E949D0493
:100890004F01FF0FAA08BB08860E971EA81EB91E9F
:1008A00020E3821A9108A108B10801C0C1E081E3E8
:1008B00091E00E9455010E947701FC01C0970A97C0
:1008C000B8F2E130F105A1F2CC2309F449CFB0949C
:1008D000A09490948094811C911CA11CB11C40CFC9
:1008E000E1E3F1E01382128288EE93E0A0E0B0E051
:1008F00084839583A683B78384E091E0918380838A
:1009000085EC90E09587848784EC90E097878687D4
:1009100080EC90E0918B808B81EC90E0938B828BCC
:1009200082EC90E0958B848B86EC90E0978B868BA5
:10093000118E128E138E148E08950E94A804A59F06
:10094000900DB49F900DA49F800D911D11240895CA
:10095000A29FB001B39FC001A39F700D811D112400
:10096000911DB29F700D811D1124911D0895EE0FF0
:10097000FF1F0590F491E02D099481E090E0F89438
:080980000C94C204F894FFCFAF
:1009880000000000EF01180146013C02B7015501C3
:100998006901C000F900A400B0009900920082002B
:0609A800F8008000900041
:00000001FF
