:100000000C9435000C945D000C945D000C945D0024
:100010000C945D000C945D000C945D000C945D00EC
:100020000C945D000C945D000C945D000C945D00DC
:100030000C945D000C945D000C945D000C945D00CC
:100040000C94A8010C945D000C9418020C94F2011D
:100050000C945D000C945D000C945D000C945D00AC
:100060000C945D000C945D005A0311241FBECFEF69
:10007000D8E0DEBFCDBF11E0A0E0B1E0ECE6F7E0F4
:1000800002C005900D92AE31B107D9F721E0AEE183
:10009000B1E001C01D92A53CB207E1F710E0C5E355
:1000A000D0E004C02197FE010E94A903C433D10708
:1000B000C9F70E9451020C94B4030C9400003FB79E
:1000C000F8948091240190912501A0912601B0918E
:1000D000270126B5A89B05C02F3F19F00196A11D49
:1000E000B11D3FBFBA2FA92F982F8827820F911DCE
:1000F000A11DB11DBC01CD0142E0660F771F881F15
:10010000991F4A95D1F70895CF92DF92EF92FF920F
:100110000F931F93CF93DF936C017A018B01C0E0A3
:10012000D0E0CE15DF0581F0D8016D918D01D601AB
:10013000ED91FC910190F081E02DC6010995892B8C
:1001400011F02196EECF7E01C701DF91CF911F9173
:100150000F91FF90EF90DF90CF900895089580E089
:1001600090E00895FC01538D448D252F30E0842FBD
:1001700090E0821B930B541710F0CF9608950197CF
:100180000895FC01918D828D981761F0828DDF01B9
:10019000A80FB11D5D968C91928D9F5F9F73928F7A
:1001A00090E008958FEF9FEF0895FC01918D828D6F
:1001B000981731F0828DE80FF11D858D90E008953C
:1001C0008FEF9FEF0895FC01918D228D892F90E094
:1001D000805C9F4F821B91098F739927089588E255
:1001E00091E00E94E30021E0892B09F420E0822FB6
:1001F0000895FC01848DDF01A80FB11DA35ABF4FE4
:100200002C91848D90E001968F739927848FA68915
:10021000B7892C93A089B1898C91837080648C9369
:10022000938D848D981306C00288F389E02D808118
:100230008F7D80830895EF92FF920F931F93CF934A
:10024000DF93EC0181E0888F9B8D8C8D981305C026
:10025000E889F989808185FD26C0F62E0B8D10E096
:100260000F5F1F4F0F731127E02E8C8DE8120CC00B
:100270000FB607FCFACFE889F989808185FFF5CFB1
:10028000CE010E94F900F1CF8B8DFE01E80FF11D28
:10029000E35AFF4FF0829FB7F8940B8FEA89FB89EE
:1002A000808180620AC09FB7F894EE89FF896083DD
:1002B000E889F98980818370806480839FBF81E0B1
:1002C00090E0DF91CF911F910F91FF90EF900895F3
:1002D000CF93DF93EC01888D8823C9F0EA89FB89ED
:1002E000808185FD05C0A889B9898C9186FD0FC0E4
:1002F0000FB607FCF5CF808185FFF2CFA889B989B9
:100300008C9185FFEDCFCE010E94F900E7CFDF9100
:10031000CF91089580E090E0892B29F00E94EF00B2
:1003200081110C9400000895009769F0FC01019080
:100330000020E9F73197AF01481B590BBC0188E257
:1003400091E00C94840080E090E008950E94AF0357
:100350001F920F920FB60F9211242F933F938F93FA
:100360009F93AF93BF938091200190912101A09121
:100370002201B091230130911F0123E0230F2D377B
:1003800020F40196A11DB11D05C026E8230F029699
:10039000A11DB11D20931F01809320019093210185
:1003A000A0932201B0932301809124019091250113
:1003B000A0912601B09127010196A11DB11D809346
:1003C000240190932501A0932601B0932701BF91AA
:1003D000AF919F918F913F912F910F900FBE0F90F2
:1003E0001F9018951F920F920FB60F9211242F9302
:1003F0003F934F935F936F937F938F939F93AF93AD
:10040000BF93EF93FF9388E291E00E94F900FF9180
:10041000EF91BF91AF919F918F917F916F915F917C
:100420004F913F912F910F900FBE0F901F901895F5
:100430001F920F920FB60F9211242F938F939F93B9
:10044000EF93FF93E0913801F09139018081E091C1
:100450003E01F0913F0182FD12C0908180914101E7
:100460008F5F8F7320914201821751F0E09141011B
:10047000F0E0E85DFE4F958F8093410101C08081DF
:10048000FF91EF919F918F912F910F900FBE0F9041
:100490001F901895A82FB92F8C918A3008F48AE004
:1004A0000895CF93DF93CDB7DEB7A4970FB6F89436
:1004B000DEBF0FBECDBF789484B5826084BD84B5A5
:1004C000816084BD85B5826085BD85B5816085BD4F
:1004D00080916E00816080936E0010928100809107
:1004E000810082608093810080918100816080938F
:1004F0008100809180008160809380008091B100B4
:1005000084608093B1008091B00081608093B000DE
:1005100080917A00846080937A0080917A00826072
:1005200080937A0080917A00816080937A00809134
:100530007A00806880937A001092C1008091000157
:1005400090910101A09102018AA39BA3ACA3E09129
:100550003801F091390182E08083E0913401F0911B
:1005600035011082E0913601F09137018FEC8083E4
:1005700010924001E0913C01F0913D0186E08083C2
:10058000E0913A01F0913B01808180618083E091AC
:100590003A01F0913B01808188608083E0913A01CB
:1005A000F0913B01808180688083E0913A01F09175
:1005B0003B0180818F7D8083CE0182960E944A021A
:1005C00080931E019AE0892E912CA12CB12C85E1FB
:1005D00091E00E949401C0901E010C2C000CDD08DB
:1005E000EE08FF08F7FE20C06DE288E291E00E946D
:1005F0001B0122273327A9012C193D094E095F0948
:1006000019A2CE0181967C01CA01B901A50194010C
:100610000E948703605DF70162937F012115310518
:100620004105510589F715C0A701960119A2CE0110
:1006300081967C01CA01B901A50194010E9487033A
:10064000605DF70162937F01211531054105510578
:1006500089F7C7010E9494018AE191E00E94940108
:100660000E945F002B013C0188E5C82E82E0D82E55
:10067000E12CF12C0E945F00DC01CB01841995096B
:10068000A609B709883E9340A105B10598F3F1E0AA
:10069000CF1AD108E108F10828EE420E23E0521EDD
:1006A000611C711CC114D104E104F10419F70E940A
:1006B0008A018DCFE8E2F1E01382128288EE93E0A6
:1006C000A0E0B0E084839583A683B78387E091E0C0
:1006D0009183808385EC90E09587848784EC90E01B
:1006E0009787868780EC90E0918B808B81EC90E0FF
:1006F000938B828B82EC90E0958B848B86EC90E0E0
:10070000978B868B118E128E138E148E0895A1E214
:100710001A2EAA1BBB1BFD010DC0AA1FBB1FEE1F7B
:10072000FF1FA217B307E407F50720F0A21BB30BC6
:10073000E40BF50B661F771F881F991F1A9469F742
:1007400060957095809590959B01AC01BD01CF019E
:100750000895EE0FFF1F0590F491E02D099481E0BC
:0C07600090E0F8940C94B403F894FFCFE0
:10076C000F0964000000001B018400B2006801E363
:0E077C0000C100D5004D61783D000D0A00005F
:00000001FF
